:100000000C94E8000C9410010C9410010C94100155
:100010000C9410010C9410010C9410010C9410011C
:100020000C9410010C9463070C9410010C94BB0801
:100030000C9410010C9410010C9410010C941001FC
:100040000C9451050C9410010C943A040C94140473
:100050000C9410010C9410010C9410010C941001DC
:100060000C949B050C941001FB0E37104110651089
:10007000DD11EC115D121E0F00407A10F35A00A042
:10008000724E18090010A5D4E80000E87648170061
:1000900000E40B54020000CA9A3B000000E1F505A1
:1000A000000080969800000040420F000000A086EB
:1000B00001000000102700000000E803000000001D
:1000C0006400000000000A000000000001000000C1
:1000D00000002C76D888DC674F0823DFC1DFAE59DB
:1000E000E1B1B796E5E3E453C63AE651997696E86E
:1000F000E6C28426EB898C9B62ED407C6FFCEFBCF2
:100100009C9F40F2BAA56FA5F490055A2AF75C931C
:100110006B6CF9676DC11BFCE0E40D47FEF520E652
:10012000B500D0ED902E0300943577050080841E35
:10013000080000204E0A000000C80C333333330F90
:10014000986E12831141EF8D2114893BE65516CF2D
:10015000FEE6DB18D1844B381BF77C1D901DA4BB39
:10016000E424203284725E228100C9F124ECA1E5EE
:100170003D2700000000240027002A0000000000A6
:10018000250028002B0000000008000201000003E9
:100190000407000000000000000000000000230031
:1001A00026002900040404040404040402020202D8
:1001B000020203030303030301020408102040802A
:1001C0000102040810200102040810203616261629
:1001D00011241FBECFEFD8E0DEBFCDBF12E0A0E0FC
:1001E000B1E0E0ECF2E402C005900D92A03AB10754
:1001F000D9F724E0A0EAB2E001C01D92AB3BB20700
:10020000E1F710E0C7EED0E004C02197FE010E94A4
:100210008F1CC63ED107C9F70E94070D0C945321CD
:100220000C940000CF92DF92EF92FF920F931F93F6
:10023000CF93DF936C017A018B01C0E0D0E0CE1543
:10024000DF0581F0D8016D918D01D601ED91FC9112
:100250000190F081E02DC6010995892B11F02196BE
:10026000EECF7E01C701DF91CF911F910F91FF90DB
:10027000EF90DF90CF900895FC01538D448D252F92
:1002800030E0842F90E0821B930B541710F0CF9630
:10029000089501970895FC01918D828D981761F062
:1002A000828DDF01A80FB11D5D968C91928D9F5FAD
:1002B0009F73928F90E008958FEF9FEF0895FC0158
:1002C000918D828D981731F0828DE80FF11D858D0B
:1002D00090E008958FEF9FEF0895FC01918D228D9E
:1002E000892F90E0805C9F4F821B91098F73992723
:1002F00008958CEB93E00E946D0121E0892B09F4B5
:1003000020E0822F0895FC01848DDF01A80FB11D2C
:10031000A35ABF4F2C91848D90E001968F7399273B
:10032000848FA689B7892C93A089B1898C91837019
:1003300080648C93938D848D981306C00288F38912
:10034000E02D80818F7D80830895EF92FF920F933F
:100350001F93CF93DF93EC0181E0888F9B8D8C8D71
:10036000981305C0E889F989808185FD26C0F62E9D
:100370000B8D10E00F5F1F4F0F731127E02E8C8D38
:10038000E8120CC00FB607FCFACFE889F989808122
:1003900085FFF5CFCE010E948301F1CF8B8DFE0149
:1003A000E80FF11DE35AFF4FF0829FB7F8940B8FCF
:1003B000EA89FB89808180620AC09FB7F894EE8940
:1003C000FF896083E889F9898081837080648083F4
:1003D0009FBF81E090E0DF91CF911F910F91FF903F
:1003E000EF900895CF93DF93EC01888D8823C9F0B7
:1003F000EA89FB89808185FD05C0A889B9898C912E
:1004000086FD0FC00FB607FCF5CF808185FFF2CFC8
:10041000A889B9898C9185FFEDCFCE010E94830117
:10042000E7CFDF91CF91089580E090E0892B29F00C
:100430000E94790181110C9400000895833081F0AD
:1004400028F4813099F08230A1F008958730A9F026
:100450008830B9F08430D1F4809180008F7D03C062
:10046000809180008F7780938000089584B58F7786
:1004700002C084B58F7D84BD08958091B0008F77D0
:1004800003C08091B0008F7D8093B00008953FB786
:10049000F8948091990390919A03A0919B03B09155
:1004A0009C0326B5A89B05C02F3F19F00196A11DFE
:1004B000B11D3FBFBA2FA92F982F8827820F911DFA
:1004C000A11DB11DBC01CD0142E0660F771F881F41
:1004D000991F4A95D1F7089585ED8093BC008091CE
:1004E000BC0084FDFCCF1092A802089540915103F6
:1004F000262F30E0240F311D21323105DCF420910C
:10050000A8022430C9F4FC0180E090E0861758F47A
:10051000309151032191DC01AF5CBC4FA30FB11DA1
:100520002C930196F3CF80915103680F6093510390
:1005300080E0089581E0089582E008950895089587
:100540000895E091AC028091AB02E81730F4F0E03E
:10055000EF5EFC4F808190E008958FEF9FEF08954C
:100560009091AC028091AB02981750F4E92FF0E023
:10057000EF5EFC4F208130E09F5F9093AC0202C0A1
:100580002FEF3FEFC90108958091AB0290E02091D9
:10059000AC02821B91090895CF92DF92EF92FF92F5
:1005A0000F931F93CF93DF937C01CB018A0120919E
:1005B0001003222389F0EB016B01C40ED51ECC156C
:1005C000DD0569F06991D701ED91FC910190F08111
:1005D000E02DC7010995F3CF642F0E947602C80170
:1005E000DF91CF911F910F91FF90EF90DF90CF900F
:1005F0000895CF93DF931F92CDB7DEB76983209123
:1006000010032223D1F02091A902203240F021E0F2
:1006100030E0FC013383228380E090E015C08091BC
:10062000AA02E82FF0E0E051FD4F998190838F5F9F
:100630008093AA028093A90205C061E0CE010196D1
:100640000E94760281E090E00F90DF91CF910895B3
:10065000089580E090E008950E948B1E0F931F93F1
:10066000CF93DF93EC0188819981009729F02A814B
:100670003B812617370788F48B016F5F7F4F0E94FD
:10068000C51D009761F0998388831B830A832C81A1
:100690003D81232B11F4FC01108281E001C080E038
:1006A000DF91CF911F910F910895EF92FF920F93D9
:1006B0001F93CF93DF93EC017B018A01BA010E9463
:1006C0002E032881398181110DC02115310519F0C2
:1006D000C9010E943C1D198218821D821C821B8246
:1006E0001A8206C01D830C83B701C9010E94991E9E
:1006F000CE01DF91CF911F910F91FF90EF90089560
:10070000CF93DF93EC016115710559F0FB01019066
:100710000020E9F73197AF01461B570B0E945503A4
:100720000CC088819981009711F00E943C1D1982AC
:1007300018821D821C821B821A82CE01DF91CF910A
:100740000895FC0111821082138212821582148294
:100750006115710551F0FB0101900020E9F7319717
:10076000AF01461B570B0C94550308956115710595
:1007700079F0FB0101900020E9F73197AF01461BAA
:10078000570BDC01ED91FC910280F381E02D09947F
:1007900080E090E008958F929F92AF92BF92EF9287
:1007A000FF920F931F93CF93DF93CDB7DEB7A1973F
:1007B0000FB6F894DEBF0FBECDBF7C01FA01CB01AE
:1007C00019A2223008F42AE08E010F5D1F4F822EFD
:1007D000912CA12CB12CBF01A50194010E94E41A17
:1007E000F901CA01015011096A3014F4605D01C0B9
:1007F000695CD8016C93232B242B252B61F7B8015E
:10080000C7010E94B603A1960FB6F894DEBF0FBED3
:10081000CDBFDF91CF911F910F91FF90EF90BF90CF
:10082000AF909F908F9008951F920F920FB60F92E6
:1008300011242F933F934F935F936F937F938F93E5
:100840009F93AF93BF93EF93FF938CEB93E00E9442
:100850008301FF91EF91BF91AF919F918F917F9114
:100860006F915F914F913F912F910F900FBE0F901D
:100870001F9018951F920F920FB60F9211242F936D
:100880008F939F93EF93FF93E091CC03F091CD036F
:100890008081E091D203F091D30382FD12C0908158
:1008A0008091D5038F5F8F732091D603821751F00B
:1008B000E091D503F0E0E454FC4F958F8093D5038D
:1008C00001C08081FF91EF919F918F912F910F90A7
:1008D0000FBE0F901F901895CF93DF93282F30E015
:1008E000F901EA57FE4F8491F901E854FE4FD49183
:1008F000F901EC55FE4FC491CC2391F081110E9477
:100900001E02EC2FF0E0EE0FFF1FE656FE4FA59102
:10091000B491EC91ED2381E090E021F480E002C0FD
:1009200080E090E0DF91CF9108951F93CF93DF9304
:10093000282F30E0F901EA57FE4F8491F901E8547D
:10094000FE4FD491F901EC55FE4FC491CC23C1F078
:10095000162F81110E941E02EC2FF0E0EE0FFF1FF8
:10096000E458FE4FA591B4919FB7F894111104C0BB
:100970008C91D095D82302C0EC91DE2BDC939FBFE5
:10098000DF91CF911F910895CF93DF9390E0FC0109
:10099000E854FE4F2491FC01EC55FE4F84918823CE
:1009A00061F190E0880F991FFC01EE58FE4FC59150
:1009B000D491FC01E458FE4FA591B491611109C096
:1009C0009FB7F8948881209582238883EC912E2309
:1009D0000BC0623061F49FB7F8948881322F309554
:1009E00083238883EC912E2B2C939FBF06C08FB757
:1009F000F894E8812E2B28838FBFDF91CF91089543
:100A00008E3008F08E508770806480937C008091D7
:100A10007A00806480937A0080917A0086FDFCCF12
:100A2000809178002091790090E0922B08958F9228
:100A30009F92AF92BF92CF92DF92EF92FF926B01A3
:100A40007C010E9447024B015C01C114D104E10406
:100A5000F104F1F00E944702DC01CB0188199909E9
:100A6000AA09BB09883E9340A105B10570F321E0B6
:100A7000C21AD108E108F10888EE880E83E0981EBA
:100A8000A11CB11CC114D104E104F10419F7DDCF9C
:100A9000FF90EF90DF90CF90BF90AF909F908F909E
:100AA00008951F920F920FB60F9211242F933F9328
:100AB0008F939F93AF93BF9380919D0390919E03DB
:100AC000A0919F03B091A0033091980323E0230FDE
:100AD0002D3720F40196A11DB11D05C026E8230F76
:100AE0000296A11DB11D2093980380939D039093BE
:100AF0009E03A0939F03B093A003809199039091CC
:100B00009A03A0919B03B0919C030196A11DB11D76
:100B10008093990390939A03A0939B03B0939C03B3
:100B2000BF91AF919F918F913F912F910F900FBEE9
:100B30000F901F9018951F920F920FB60F921124CD
:100B40002F933F934F935F936F937F938F939F93D5
:100B5000AF93BF93EF93FF938091B900887F803666
:100B600009F49CC068F5883209F45BC090F48031C8
:100B700009F454C038F4882309F4F6C0883009F425
:100B80004DC0F6C0883109F44CC0803209F45DC014
:100B9000EFC0803409F468C048F4803309F455C0CC
:100BA000883309F0E5C080937403D8C0803509F418
:100BB0004FC0883509F45DC0883409F0D9C0D6C06B
:100BC000883909F4C7C0A8F4883709F467C038F435
:100BD000883609F463C0803709F460C0C9C088381A
:100BE00009F4B8C0803909F45FC0803809F0C0C08A
:100BF0005BC0803B09F486C038F4803A09F466C0D3
:100C0000883A09F47FC0B4C0803C09F4A7C0883C8E
:100C100009F4A4C0883B09F48AC0AAC08091970354
:100C200010C09091960380919503981770F5E0910C
:100C3000960381E08E0F80939603F0E0EB58FC4F13
:100C400080818093BB0085EC86C0809374038EC046
:100C5000E091960381E08E0F809396038091BB0014
:100C6000F0E0EB58FC4F80839091960380919503C0
:100C70006EC0E091960381E08E0F80939603809181
:100C8000BB00F0E0EB58FC4F80838091A7028111FC
:100C90006DC081E08093A60284EA61C083E0809306
:100CA000A80210927303CFCF80917303803208F0B3
:100CB00051C0E091730381E08E0F809373038091A4
:100CC000BB00F0E0ED5AFC4F8083BDCF85EC8093F4
:100CD000BC001092A80280917303803230F4E0913E
:100CE0007303F0E0ED5AFC4F10826091730370E0E3
:100CF000E091A202F091A30283E593E0099510929E
:100D0000730336C084E08093A802109252031092BD
:100D10005103E091A402F091A5020995809151033D
:100D2000811105C081E08093510310923103E0915D
:100D3000520381E08E0F80935203F0E0EF5CFC4F92
:100D400080818093BB00909152038091510398174A
:100D500008F479CF85E88093BC000AC085EC8093C5
:100D6000BC001092A80204C0109274030E946C028E
:100D7000FF91EF91BF91AF919F918F917F916F9173
:100D80005F914F913F912F910F900FBE0F901F9049
:100D90001895CF93FC01C48121E020931003C093E8
:100DA000EF021092AA021092A9028385682B89E5AE
:100DB00094E00E94F9029091A902913208F045C096
:100DC0008091A8028111FCCF82E08093A80281E08B
:100DD0008093A7028FEF80937403109296039093F1
:100DE0009503A0EFB2E0E5E7F3E080E0981721F08B
:100DF0002D9121938F5FFACF1092970380919703E3
:100E0000CC0FC82BC09397038091A602813061F468
:100E10001092A602809197038093BB008091BC0042
:100E200083FDF8CF85EC01C085EE8093BC008091F6
:100E3000A8028230E1F3809174038F3F31F08091FA
:100E40007403803211F0809174031092AA02109200
:100E5000A90210921003CF9108950F931F93CF937F
:100E60008C01C62F0E94C9066C2F6460C8010E94C5
:100E7000C9066C2F6B7FC8010E94C90683EC90E005
:100E80000197F1F7CF911F910F9108950F931F9341
:100E9000CF93DF938C01C62FD42F607F642B0E94E9
:100EA0002D0780E1C89FB00111246D2BC801DF918F
:100EB000CF911F910F910C942D0741E00E9446079E
:100EC00081E090E008951F920F920FB60F921124C7
:100ED0002F933F934F935F936F937F938F939F9342
:100EE000AF93BF93EF93FF938091A0028F5F8093A6
:100EF000A0028091A1022091A00290E0FC01EE0FDF
:100F0000FF1F8E0F9F1FFC01EF55FC4F8181821345
:100F10000FC08091A10290E0FC01EE0FFF1F8E0F29
:100F20009F1FFC01EF55FC4F82818093B20065C08A
:100F30008091A1022091A00290E0FC01EE0FFF1F22
:100F40008E0F9F1FFC01EF55FC4F8181821708F027
:100F500054C08091A10290E0FC01EE0FFF1F8E0FA4
:100F60009F1FFC01EF55FC4F808185FF10C08091D1
:100F7000A10290E0FC01EE0FFF1F8E0F9F1FFC01EE
:100F8000EF55FC4F808160E08F710E949504809145
:100F9000A1028F5F8093A1021092A0021092B20072
:100FA0008091A102882319F18091A1028930F8F47F
:100FB0008091A10290E0FC01EE0FFF1F8E0F9F1F9A
:100FC000FC01EF55FC4F808185FF17C08091A10285
:100FD00090E0FC01EE0FFF1F8E0F9F1FFC01EF55ED
:100FE000FC4F808161E08F710E94950406C0809162
:100FF000A102893010F01092A102FF91EF91BF91F0
:10100000AF919F918F917F916F915F914F913F91A0
:101010002F910F900FBE0F901F9018958F929F9257
:10102000AF92BF92CF92DF92EF92FF920F931F93F6
:10103000CF93DF9300D000D000D0CDB7DEB70E94B1
:10104000120A60E080E00E94DE0982E592E00E94E0
:10105000D9090091B3021091B402CC24C394D12CCD
:1010600026E0922E063011052CF417FF05C00B5F09
:101070001F4F02C000E010E0FC2C6C2D80E00E94AD
:10108000DE092091B1023091B202C6010197281702
:10109000390729F46EE789EA94E00E945D076F2D15
:1010A00081E00E94DE0964E272E0CE0101960E94B6
:1010B000A103909EF001919EF00D1124EB59FB4F7E
:1010C000E480F580E114F10421F123E1E216F1045A
:1010D00018F083E1E82EF12C909EC001919E900DB6
:1010E0001124DC01AB59BB4F5D01ED91FC911197CF
:1010F000EE0DFF1D808010826D917C91CE010196D6
:101100000E948003F50180819181FC01EE0DFF1D9D
:101110008082CE0101960E94430A89819A810E94B1
:101120003C1D0F5F1F4FFFEFCF1ADF0A24E0C216EE
:10113000D10409F097CF26960FB6F894DEBF0FBE04
:10114000CDBFDF91CF911F910F91FF90EF90DF9076
:10115000CF90BF90AF909F908F9008952091000105
:10116000309101012531354014F0682F01C060E055
:101170008DE00C9495041F920F920FB60F921124DC
:10118000CF92DF92EF92FF922F933F934F935F9313
:101190006F937F938F939F93AF93BF93EF93FF933F
:1011A0008EE00E946C042091ED023091EE02892BBA
:1011B00009F05DC0121613060CF462C06091E902DA
:1011C0007091EA028091EB029091EC020E94661904
:1011D0006B017C019B01AC0169ED7CEE8EE995E42D
:1011E0000E94821B0E94F41B7093BA026093B902A2
:1011F000072E000C880B990B0E94661920E030E046
:1012000040E752E40E94821B20E030E040E752E4D5
:101210000E94821B20E030E04AE754E40E94821BD7
:10122000A70196010E94C5199B01AC016091B5020E
:101230007091B6028091B7029091B8020E94161B7D
:101240006093B5027093B6028093B7029093B80290
:101250001092E9021092EA021092EB021092EC0254
:101260008AE090E09093EE028093ED0209C012169E
:10127000130634F4215031093093EE022093ED022D
:101280004091E9025091EA026091EB027091EC0208
:101290008091AD029091AE02A091AF02B091B002E8
:1012A000413D27E05207610571054CF01092BA02EA
:1012B0001092B902805D9740A109B1090FC04F5F3C
:1012C0005F4F6F4F7F4F4093E9025093EA02609364
:1012D000EB027093EC020196A11DB11D8093AD024B
:1012E0009093AE02A093AF02B093B002FF91EF9142
:1012F000BF91AF919F918F917F916F915F914F912E
:101300003F912F91FF90EF90DF90CF900F900FBE05
:101310000F901F9018958F929F92AF92BF92CF928D
:10132000DF92EF92FF92CF93DF93A0918A048823FC
:1013300011F03A2F01C030E080918B0490E0880FCB
:10134000991F86569E4FC0909004D0909104E090D3
:101350009204F090930440E050E0BA01FC01C59182
:10136000D49128812A23231314C04A015B012FEF53
:10137000821A920AA20AB20A4C155D056E057F0513
:1013800018F4B501A401EACF30E020E080E090E05D
:1013900003C0342F252FCB01632F722FDF91CF9104
:1013A000FF90EF90DF90CF90BF90AF909F908F9085
:1013B0000895BC0189EA94E00C94B603CF93DF93BF
:1013C000CDB7DEB728970FB6F894DEBF0FBECDBFFE
:1013D00098E0EAE0F1E0DE01119601900D929A9515
:1013E000E1F79091B104492F50E0262F30E0241707
:1013F000350714F06FEF690FFE013196E60FF11D0E
:10140000E60FF11D6081680F606840E089EA94E0B2
:1014100028960FB6F894DEBF0FBECDBFDF91CF91F7
:101420000C94460740E061E089EA94E00E94460798
:101430008BE39FE10197F1F70895E091B5042FEF59
:101440002E0F2830F8F48E3E22E092073CF08B3CC1
:1014500028E092072CF08AEC98E002C08EEE92E031
:101460000897F0E09C01220F232F221F330BAF01BE
:10147000440F551FE40FF51FEF55FC4F2183880FD4
:10148000809582830895FC0144815581608171813A
:1014900089EA94E00C9412010F931F93CF93DF938A
:1014A00010929E0410929F0410929D0410929C042E
:1014B0001092A0048091A5040E946C0481309105D3
:1014C00011F4109299042091A7043091A804821776
:1014D000930729F0009719F421E020939904909341
:1014E000A8048093A7048091A1040E94000528EC21
:1014F00030E0DC010E949D1C2FEF33E040E050E023
:101500000E94831A89019A0104561109210931099F
:10151000E80180919A0490919B0466277727681BC5
:10152000790B6017710744F4081719072CF410920F
:1015300096041092950404C01093960400939504A9
:101540008C179D0724F481E080939C0406C0C61785
:10155000D7071CF481E080939D048091A3040E942E
:1015600000059C01A8E3BFEF0E94951C2FEF33E01C
:1015700040E050E00E94831A89019A010C591F4FE4
:101580002F4F3F4FC80160919A0470919B04EE2742
:10159000FF27E61BF70BE017F10744F4C617D70740
:1015A0002CF4109298041092970404C0109398049D
:1015B000009397046817790724F481E080939F04CF
:1015C00006C08E179F071CF481E080939E048091D3
:1015D0009D0481110CC080919C04811108C08091F0
:1015E0009E04811104C080919F04882319F081E03A
:1015F0008093A004DF91CF911F910F9108954F9296
:101600005F926F927F928F929F92AF92BF92CF9292
:10161000DF92EF92FF92CF93DF936B017C019B01EE
:10162000AC010E94751C882319F063E972E027C0A1
:1016300046015701E894B7F82FEF3FEF4FE75FE718
:10164000C501B4010E94751C81110DC02FEF3FEF41
:101650004FE75FE7C501B4010E945F1918161CF43B
:1016600067E972E00CC02FEF3FEF4FE75FE4C7017F
:10167000B6010E942A1C1816A4F46BE972E089EAEC
:1016800094E0DF91CF91FF90EF90DF90CF90BF90EB
:10169000AF909F908F907F906F905F904F900C9441
:1016A000B6032FEF3FEF4FE75FECC701B6010E9493
:1016B0005F1987FDE2CF20E030E0A901C701B60144
:1016C0000E945F1987FF0DC041E06DE289EA94E056
:1016D0000E944607F7FAF094F7F8F094C1E0D0E0E2
:1016E00002C0C0E0D0E02AE037ED43EA5BE3C70187
:1016F000B6010E94161B4B015C010E94FB1B6B0193
:101700007C010E9464199B01AC01C501B4010E94D7
:10171000151B4B015C012AE0B701A60189EA94E0A0
:101720000E94CB037C01EC0EFD1E41E06EE289EAD3
:1017300094E00E9446078FEFE81AF80AC3E0C15010
:1017400029F120E030E040E251E4C501B4010E94FB
:10175000C5192B013C010E94FB1B4B01A12CB12C94
:101760002AE0B501A40189EA94E00E94CB03E80EC7
:10177000F91EC501B4010E9464199B01AC01C301AB
:10178000B2010E94151B4B015C01D9CFC701DF914B
:10179000CF91FF90EF90DF90CF90BF90AF909F9050
:1017A0008F907F906F905F904F900895CF92DF92CF
:1017B000EF92FF920F931F93CF93DF93CDB7DEB7D6
:1017C000C054D1400FB6F894DEBF0FBECDBF2FB7C7
:1017D000F89480919D0390919E03A0919F03B091F6
:1017E000A0032FBF40918C0450918D0460918E0412
:1017F00070918F048C019D01041B150B260B370B78
:10180000B901A801403D57406105710518F4809168
:101810009404BCC080938C0490938D04A0938E0498
:10182000B0938F041092870410928604109285045E
:10183000109284041092830461E0809188040E94D5
:1018400095046AEF70E080E090E00E94170561E087
:10185000809188040E94C40460E0809188040E9402
:10186000950464E170E080E090E00E941705F89430
:1018700061E0809188040E9495048BE990E00197D3
:10188000F1F762E0809188040E94C40483E290E052
:101890000197F1F780E00E948B09672B682B692B79
:1018A00021F41092940478943EC081E00E948B0948
:1018B000672B682B692BA9F38E010F5F1F4F6E01F9
:1018C0002FEBC21A2EEFD20A780180E00E948B091A
:1018D000F701608371838283938381E00E948B0987
:1018E000F7016483758386839783F8E0EF0EF11C1C
:1018F000EC14FD0451F7789420E030E0F801C0804A
:10190000D180E280F3804481558166817781C11462
:10191000D104E104F10429F0411551056105710577
:1019200021F41092940480E031C0F90183E0F59530
:10193000E7958A95E1F7ED57FB4F8081880FC41634
:10194000D506E606F70608F4816080832F5F3F4FD7
:10195000085F1F4F2832310589F62091870430E057
:10196000409183048091840490E0840F911D409104
:101970008504840F911D40918604840F911D992741
:101980002817390771F681E080939404C05CDE4F1C
:101990000FB6F894DEBF0FBECDBFDF91CF911F9180
:1019A0000F91FF90EF90DF90CF900895EF92FF920C
:1019B0000F931F93CF93DF936115710511F480E0AE
:1019C0001FC0FB0101900020E9F73197E61BF70BE0
:1019D000B1F07B01EC010C811D810E0F1F1FB801BE
:1019E0000E942E03882359F3288139818C819D819F
:1019F000B701820F931F0E94991E1D830C8381E003
:101A0000DF91CF911F910F91FF90EF900895CF93A9
:101A1000DF93CDB7DEB7AF970FB6F894DEBF0FBE3A
:101A2000CDBF789484B5826084BD84B5816084BD67
:101A300085B5826085BD85B5816085BD80916E006C
:101A4000816080936E00109281008091810082609D
:101A500080938100809181008160809381008091DA
:101A600080008160809380008091B10084608093C9
:101A7000B1008091B00081608093B00080917A00C5
:101A8000846080937A0080917A00826080937A00EB
:101A900080917A00816080937A0080917A008068DA
:101AA00080937A001092C100E091CC03F091CD03B5
:101AB00082E08083E091CC03F091CD031082E0912D
:101AC000C803F091C9031082E091CA03F091CB03DF
:101AD00080E180831092D403E091D003F091D10390
:101AE00086E08083E091CE03F091CF038081806116
:101AF0008083E091CE03F091CF0380818860808362
:101B0000E091CE03F091CF03808180688083E091E3
:101B1000CE03F091CF0380818F7D808362E083E0EC
:101B20000E94C40462E08EE00E94C40461E085E08B
:101B30000E94C40461E08DE00E94C40460E08DE076
:101B40000E9495048091BB02811121C0E1EAF3E07B
:101B50009BE087E594838583339623E0E93BF20796
:101B6000C9F78EE38093A2031092A1021092A00203
:101B7000109270001092B00082E08093B100109239
:101B8000B20081E087BB809370008093BB0280919C
:101B9000B504882399F061E085E00E94C404E091D7
:101BA000B504F0E0CF01880F991FE80FF91FEF553A
:101BB000FC4F8081807E85608062808380EB94E032
:101BC0000E941D0A62E0809188040E94C40480E3A0
:101BD00098EFAFEFBFEF80938C0490938D04A093A8
:101BE0008E04B0938F041092AC021092AB0210924C
:101BF000AA021092A9021092A80281E08093A70283
:101C00001092A60261E082E10E94950461E083E106
:101C10000E9495048091B9008E7F8093B9008091D5
:101C2000B9008D7F8093B90088E48093B80085E483
:101C30008093BC008EE992E09093A5028093A40269
:101C40008FE992E09093A3028093A2021092AE04D7
:101C50008091B304823018F098E09093AE048093A2
:101C6000B10462E370E080E090E00E9417056091AB
:101C7000B40489EA94E00E94C90668EE73E080E04B
:101C800090E00E94170560E389EA94E00E942D0726
:101C90000BE416E4C8010197F1F760E389EA94E0E8
:101CA0000E942D07C8010197F1F760E389EA94E0EB
:101CB0000E942D0783E592E00197F1F760E289EA3F
:101CC00094E00E942D076091AE04606240E089EAD2
:101CD00094E00E94460784E08093AF0440E06CE00B
:101CE00089EA94E00E9446070E94120A82E08093EB
:101CF000B00440E066E089EA94E00E94460740E0D4
:101D000062E089EA94E00E9446070BE31FE1C80104
:101D10000197F1F788E08093B40460E089EA94E0E9
:101D20000E94C90640E062E089EA94E00E9446070A
:101D3000C8010197F1F760E080E00E94DE0985E5C7
:101D400091E00E94D90961E080E00E94DE098EE501
:101D500091E00E94D90962E080E00E94DE0989E6F4
:101D600091E00E94D90963E080E00E94DE0989E7E2
:101D700091E00E94D909F89410928000109281009D
:101D800010928500109284008FEC97E09093890068
:101D90008093880080918100886080938100809189
:101DA000810082608093810080916F0082608093C7
:101DB0006F0078949FE088E10FB6F894A89580931F
:101DC00060000FBE90936000A89564E670E080E02C
:101DD00090E00E94170522242394312CA895E091CD
:101DE000E702F091E802E830F10508F05CC6EC5C2F
:101DF000FF4F0C948F1C0E94120A8EE891E00E9403
:101E0000D90961E080E00E94DE0989E791E00E9443
:101E1000D90962E080E00E94DE0989E991E00E9430
:101E2000D90963E080E00E94DE098BEA91E00E941C
:101E3000D9093092E8022092E70235C664E670E0E4
:101E400080E090E00E9417058091E602882321F14E
:101E50000E94120A60E080E00E94DE0985E292E0C2
:101E60000E94D90961E080E00E94DE098BE392E0E4
:101E70000E94D90962E080E00E94DE0987EE91E0CD
:101E80000E94D90963E080E00E94DE098FE392E0BE
:101E90000E94D9091092E6020E94D60B882309F409
:101EA00002C4809189048B3009F0D7C36091830408
:101EB00070E080E090E00E9464196B017C010E9458
:101EC000D60B882309F4C7C5809189048B3009F0AB
:101ED000F1C36091850470E080E090E00E94641995
:101EE00026E636E646EE5FE30E94C51920E030E0C4
:101EF00040E052E40E94161B2B013C01A701960111
:101F0000C701B6010E94751C882331F0C12CD12C69
:101F100030E8E32E3FEBF32EA3019201C301B2019F
:101F20000E94751C811190C520E030E040E85FEB15
:101F3000C301B2010E942A1C18160CF09DC520E0B6
:101F400030E040E85FEBC701B6010E942A1C18167A
:101F50000CF092C520E030E048E852E4C301B20141
:101F60000E94151B2AE939E949E95FE30E94C51976
:101F70004B015C0120E030E044E752E4C301B201D0
:101F80000E94161B9B01AC01C501B4010E94161BE7
:101F90004B015C0122E133E840EC5DE3C701B6018F
:101FA0000E94C5199B01AC01C501B4010E94161B1A
:101FB00020E030E040E05FE30E94C5194B015C0186
:101FC00020E030E04EE952E40E942A1C18160CF47E
:101FD000A3C3A30192016091D8027091D9028091AC
:101FE000DA029091DB020E945F19811106C580918F
:101FF000E602811102C52091D4023091D5024091B0
:10200000D6025091D702C701B6010E945F19811113
:1020100001C58091E6028111FDC4A5019401609182
:10202000D0027091D1028091D2029091D3020E948D
:102030005F198111FCC48091E6028111F8C480927D
:10204000D0029092D102A092D202B092D3024092DA
:10205000D8025092D9026092DA027092DB02C092EA
:10206000D402D092D502E092D602F092D7020E941A
:102070004C0A80919904882309F415C582E090E008
:10208000A6C10E94120A84EB91E00E94D90961E086
:1020900080E00E94DE0989EB91E00E94D90962E0AC
:1020A00080E00E94DE098EEB91E00E94D90963E096
:1020B00080E00E94DE0983EC91E00E94D90981E072
:1020C0008093E60283E090E082C12091E4023091A7
:1020D000E5028091B9029091BA022817390721F4DC
:1020E0008091E6028823A1F160E080E00E94DE0991
:1020F00080ED91E00E94D90960E080E00E94DE0955
:1021000085EE91E00E94D90960E085E00E94DE0939
:10211000C090B902D090BA020D2C000CEE08FF0856
:10212000F7FE0FC041E06DE289EA94E00E944607A5
:1021300044275527BA014C195D096E097F092AE029
:1021400003C02AE0B701A60189EA94E00E94CB030C
:102150002091B5023091B6024091B7025091B80279
:102160006091E0027091E1028091E2029091E302BD
:102170000E945F19811105C08091E602882309F44D
:102180005BC061E080E00E94DE0980ED91E00E948A
:10219000D90961E080E00E94DE0989EB91E00E94AC
:1021A000D90961E085E00E94DE096091B502709175
:1021B000B6028091B7029091B8021BA21AA21DA28A
:1021C0001CA21FA21EA28E010F5F1F4F22E044E03F
:1021D0000E940D17BC01CE0182960E94800364E22A
:1021E00072E0C8010E94A1030EA11FA101151105F3
:1021F000B9F00430110510F004E010E0EAA1FBA1F1
:10220000E00FF11FF08010826AA17BA1CE01019640
:102210000E9480038AA19BA1FC01E00FF11FF082C4
:10222000CE0101960E94430A89819A810E943C1D39
:102230008AA19BA10E943C1D2091020130910301C3
:102240008091DE029091DF022817390721F48091F6
:10225000E602882309F163E080E00E94DE0980ED58
:1022600091E00E94D90963E080E00E94DE0983ECDE
:1022700091E00E94D90963E08DE00E94DE0980911F
:10228000DE029091DF02892B19F08EE491E002C00A
:1022900081E591E00E94D9098091DC029091DD02F4
:1022A000892B29F48091E602882309F457C062E063
:1022B00085E00E94DE0964E272E0CE0101960E9490
:1022C000A103A091DC02B091DD022EE030E00E947B
:1022D0009D1C24E630E040E050E00E94831A490152
:1022E0005A01790112161306ACF06BEE71E0CE01C3
:1022F00001960E94D60C81E0881A91089DE089160B
:10230000910420F5C12CD12C8EE090E08E199F090C
:102310007C010FC0C12CD12C60E072E0CE0101968F
:102320000E94D60C9FEFC91AD90AEC14FD04A4F739
:10233000DCCFCE14DF0454F463EE71E0CE010196DD
:102340000E94D60C2FEFC21AD20AF3CFCE0101960B
:102350000E94430A89819A810E943C1D0E944C0A76
:1023600080919904882331F084E090E09093E80212
:102370008093E7021092E6028091B9029091BA022E
:102380009093E5028093E4028091B5029091B602A9
:10239000A091B702B091B8028093E0029093E1025D
:1023A000A093E202B093E3028091DE029091DF02FB
:1023B000909303018093020176C30E940E0864EF9C
:1023C00071E080E090E00E94170585E090E0909336
:1023D000E8028093E70267C364E670E080E090E083
:1023E0000E9417050E944C0A0E944C0A8091990491
:1023F0008823D9F02091B3023091B4028091B102C8
:102400009091B202820F931F009749F00596909326
:10241000E8028093E70281E08093E60201C482E053
:1024200090E09093E8028093E7028091A0048823D3
:1024300009F439C380919F04882319F021E030E02A
:1024400002C02FEF3FEF8091B1029091B202820F54
:10245000931F9093B2028093B10284309105ACF047
:1024600003978630910514F00597FBCF9093B40243
:102470008093B30283E090E09093B2028093B10224
:102480008091B3029091B4020BC097FFF9CF909363
:10249000B4028093B3021092B2021092B102F0CF54
:1024A00097FF02C00596FCCF9093B4028093B302CD
:1024B0000E940E081092E602F6C28091E60288237E
:1024C000A9F00E94120A60E080E00E94DE098DEE11
:1024D00091E00E94D90962E080E00E94DE0982E07A
:1024E00092E00E94D9091092E602A4C061E080E067
:1024F0000E94DE096091AD027091AE028091AF0240
:102500009091B00220E13EE040E050E00E94E41AE9
:10251000122F032FF42EE52E2CE330E040E050E0A4
:102520000E94E41A7F936F933F932F93EF92FF9251
:102530000F931F9382E192E09F938F938CEB92E035
:102540009F938F930E94A01E8CEB92E00E94D9096A
:10255000C090AD02D090AE02E090AF02F090B00219
:102560000FB6F894DEBF0FBECDBFF7FE0EC06DE212
:102570008CEB93E00E94A50144275527BA014C1922
:102580005D096E097F092AE003C02AE0B701A601B0
:102590008CEB93E00E94CB0362E272E08CEB93E061
:1025A0000E94B60363E080E00E94DE098FB7F894D2
:1025B000C0909D03D0909E03E0909F03F090A003F5
:1025C0008FBFC701B60128EE33E040E050E00E9423
:1025D000E41ACA01B90120E13EE040E050E00E9467
:1025E000E41A2CE330E040E050E00E94E41A7F93CC
:1025F0006F933F932F93C701B60120E83EEE46E369
:1026000050E00E94E41A5F934F933F932F9382E12F
:1026100092E09F938F938CEB92E09F938F930E9415
:10262000A01E8CEB92E00E94D9090FB6F894DEBF91
:102630000FBECDBF0E944C0A80919904882331F0CF
:1026400082E090E09093E8028093E70264E670E015
:1026500080E090E00E94170526C28B3020F1855162
:10266000823008F56091830470E080E090E00E9481
:10267000641920E030E040E853E40E94C5196B0182
:102680007C016091840470E080E090E00E94661913
:10269000A70196010E94161B2DEC3CEC4CEC5DE36F
:1026A0000E94C5190ACCC12CD12C50ECE52E5FE755
:1026B000F52E05CC8B3048F18551823030F51091E4
:1026C0008504612F6F7770E080E090E00E946619CA
:1026D00020E030E040E853E40E94C5194B015C0162
:1026E0006091860470E080E090E00E946619A50188
:1026F00094010E94161B2DEC3CEC4CEC5DE30E9417
:10270000C51917FFEDCB9058EBCB412C512C40EC69
:10271000642E4FE7742EF2CBA3019201C301B201E4
:102720000E94C51968A779A78AA79BA7A701960148
:10273000C701B6010E94C5196CA77DA78EA79FA7E8
:1027400021E133E243E050E4C301B2010E94C51924
:1027500029E134E849E252E40E94151B4B015C0177
:1027600026E13BE442E251E4C701B6010E94C519EB
:102770009B01AC01C501B4010E94161B4B015C0119
:1027800028E436E246E65EEBC301B2010E94C519B9
:10279000A70196010E94C5199B01AC01C501B401B6
:1027A0000E94161B4B015C0120EE3FE040EE5BEB0C
:1027B00068A579A58AA59BA50E94C5199B01AC01B6
:1027C000C501B4010E94161B4B015C0128EF37E8DC
:1027D00040E65DEB6CA57DA58EA59FA50E94C51961
:1027E0009B01AC01C501B4010E94161B4B015C01A9
:1027F0002CEA3DE041EA5AE368A579A58AA59BA5A4
:102800000E94C519A70196010E94C5199B01AC0140
:10281000C501B4010E94161B4B015C0128EC3FE886
:102820004FE55AE3C301B2010E94C5192CA53DA58D
:102830004EA55FA50E94C5199B01AC01C501B4015D
:102840000E94161B4B015C0121EF3BE845E056EB73
:1028500068A579A58AA59BA50E94C5192CA53DA5AB
:102860004EA55FA50E94C5199B01AC01C501B4012D
:102870000E94161B4B015C0120E030E040E551E472
:10288000C701B6010E945F1987FF66C020E030E0F3
:1028900040EA52E4C301B2010E942A1C87FD5CC0D9
:1028A00020E030E040EE52E4C301B2010E945F1923
:1028B00018160CF4B8C1A701960160E070E080E53D
:1028C00091E40E94151B20E030E040E85EE30E94A6
:1028D000C5196CA77DA78EA79FA720E030E04EEB1F
:1028E00052E4C301B2010E94151B68A779A78AA709
:1028F0009BA720E030E0A9010E942A1C18165CF476
:1029000028A539A54AA55BA560E070E088E891E4B8
:102910000E94151B0AC020E030E048E851E468A599
:1029200079A58AA59BA50E94161B2EE33DEE40E7E4
:102930005DE30E94C5190E94351C9B01AC016CA58A
:102940007DA58EA59FA50E94C5199B01AC01C5015F
:10295000B4010E94151B4EC020E030E04AEA52E468
:10296000C701B6010E942A1C18160CF032CB20E0D9
:1029700030E040EA52E4C301B2010E942A1C87FD04
:1029800028CB20E030E04EEA52E4C301B2010E94BD
:102990005F1918160CF41DCB20E030E04AEA52E42F
:1029A000C701B6010E94151B2DEC3CEC4CEC5DE31D
:1029B0000E94C51968A779A78AA79BA7A3019201BE
:1029C00060E070E08EEA92E40E94151B2DEC3CEC76
:1029D0004CE45EE30E94C5199B01AC0168A579A592
:1029E0008AA59BA50E94C5199B01AC01C501B40134
:1029F0000E94161B4B015C01ECCA61E080E00E9462
:102A0000DE098BE392E00E94D909C301B2010E9462
:102A1000FF0AF1CA62E080E00E94DE0987EE91E0E1
:102A20000E94D909C701B6010E94FF0AF6CA63E0F5
:102A300080E00E94DE098FE392E00E94D909C5017F
:102A4000B4010E94FF0AFBCA412C512C20E8622EDF
:102A50002FEB722E11C0A7019601C701B6010E948B
:102A6000751C882309F4EBC0C12CD12C90E8E92E09
:102A70009FEBF92E260137010E94120A61E080E0E7
:102A80000E94DE0984E492E00E94D90968EE73E0B6
:102A900080E090E00E94170582E090E09093E802C9
:102AA0008093E702D4CA81E10E9400057C019093E3
:102AB000CF028093CE0262E370E080E090E00E945B
:102AC000170583E00E946C046C019093DF028093F1
:102AD000DE02C701FF0CAA0BBB0B4C015D012EEB04
:102AE000821A9108A108B108A4E6B0E0A5019401FA
:102AF0000E94A21A2FE932E040E050E00E94831ABF
:102B00003093DD022093DC02CD28C9F4A0E2B3E0CB
:102B1000A50194010E94A21A2FE932E040E050E0A2
:102B20000E94831ADA01C90180559B4FAF4FBF4FF6
:102B3000909301018093000181E090E01AC0A8EE1B
:102B4000B3E0A50194010E94A21A2FE932E040E00F
:102B500050E00E94831ADA01C90180559B4FAF4FA4
:102B6000BF4F90930101809300018091CC0290911E
:102B7000CD020E94AE088091000190910101803B3E
:102B800024E092073CF0893928E092072CF088E98C
:102B900098E002C080EB94E09093010180930001E3
:102BA0000E941D0A2FB7F89480919D0390919E0377
:102BB000A0919F03B091A0032FBF4091C8025091F4
:102BC000C9026091CA027091CB02841B950BA60BBF
:102BD000B70B85369105A105B10510F12FB7F89413
:102BE00080919D0390919E03A0919F03B091A003BB
:102BF0002FBF8093C8029093C902A093CA02B093DA
:102C0000CB028091CC029091CD02892B29F4309295
:102C1000CD022092CC0204C01092CD021092CC02C0
:102C20000E941402DBC820E030E04AEA52E4C70107
:102C3000B6010E942A1C18160CF4A3CECAC9412C56
:102C4000512C80EC682E8FE7782E66C9CF93DF93E6
:102C5000C3E8D4E02697888199810E943C1D84E0D6
:102C6000C536D807B9F7DF91CF9108951092BF0309
:102C70001092BE0388EE93E0A0E0B0E08093C00322
:102C80009093C103A093C203B093C30326E131E044
:102C90003093BD032093BC0325EC30E03093C9038F
:102CA0002093C80324EC30E03093CB032093CA0375
:102CB00020EC30E03093CD032093CC0321EC30E0C6
:102CC0003093CF032093CE0322EC30E03093D10336
:102CD0002093D00326EC30E03093D3032093D2032B
:102CE0001092D5031092D6031092D7031092D803F6
:102CF00010925C0410925B0480935D0490935E04D8
:102D0000A0935F04B093600488E291E090935A042A
:102D1000809359048091B604883030F48F5F80939B
:102D2000B6048093B50402C01092B5041092AC04AE
:102D30001092AB048AE391E09093AA048093A904D3
:102D400087E28093AD0484E18093B20484E08093B1
:102D5000B3041092B4048AE090E090939B048093B3
:102D60009A041092A8041092A70480E190E0909336
:102D7000A2048093A1048FE090E09093A404809338
:102D8000A30487E090E09093A6048093A50460E0FC
:102D900080E10E94C40460E08FE00E94C40462E00D
:102DA00087E00E94C4048FE08093880486E18093CA
:102DB0008904E7ECF1E0E491E0938A04E3EBF1E0CD
:102DC000E491E0938B0480E89EE3A0E0B0E0809380
:102DD000900490939104A0939204B093930466E6B8
:102DE00072E085E694E00E94A1036BE672E08BE658
:102DF00094E00E94A10365E772E081E794E00E94FD
:102E0000A10361E872E087E794E00E94A1036EE805
:102E100072E08DE794E00C94A103EF920F931F935F
:102E2000CF93DF93E80147FD02C034E001C034E1F5
:102E3000042E000C550B57FF03C0519541955109C5
:102E4000E32E022F242FAE010E942D17CE01DF9119
:102E5000CF911F910F91EF900895A9E0B0E0E3E3C7
:102E6000F7E10C94B31A6A01122FB02E2BE320174E
:102E700020F0FF24F394F00E02C02CE3F22E0F2D6D
:102E800027E0AE014F5F5F4F0E948718BC01498168
:102E9000842F8970813031F0E1FC06C0E0FE06C06D
:102EA00090E205C09DE203C09BE201C090E05E2D70
:102EB000507143FF3CC0911102C083E001C084E027
:102EC000811718F4212F281B01C020E051110BC0DD
:102ED000F601822F30E2882319F031938150FBCF25
:102EE000C20ED11C20E0992329F0D6019C93F60153
:102EF00031966F01C6010396E2FE0AC03EE4D60198
:102F00003C9341E411964C93119712963C9306C062
:102F10003EE6F601308341E641833283FC01322FE5
:102F200040E2332309F442C041933150FACF42FFCB
:102F300044C0911102C083E001C084E0811718F4FD
:102F4000212F281B01C020E051110BC0F601822F58
:102F500030E2882319F031938150FBCFC20ED11C8F
:102F600020E0992329F0D6019C93F60131966F0158
:102F7000C6010396E2FE0BC039E4D6013C933EE461
:102F800011963C93119736E412963C9307C039E6AC
:102F9000F60130833EE6318336E63283FC01322F80
:102FA00040E2332319F041933150FBCFFC01E20F93
:102FB000F11D10828EEF9FEFA6C021E030E091114D
:102FC00002C020E030E0161617061CF4FB01319613
:102FD00002C0E1E0F0E02E0F3F1FBB2021F0EB2DFF
:102FE000F0E0319602C0E0E0F0E02E0F3F1FE12F4D
:102FF000F0E02E173F071CF4121B212F01C020E028
:103000008E2D887159F4F601822F30E2882319F051
:1030100031938150FBCFC20ED11C20E0992329F0BF
:10302000D6019C93F60131966F0151110BC0F60148
:10303000822F90E3882319F091938150FBCFC20E29
:10304000D11C20E00F2D060F9A81342F307144FFE0
:1030500003C0913309F40150101624F4093018F01C
:1030600008E001C001E0AB0177FF02C040E050E0A2
:10307000FB01E41BF50BA1E0B0E0AC0FBD1FEA0FB4
:10308000FB1F8EE2A82E4B01801A91080B2D10E039
:103090001195019511094F3FBFEF5B0721F4D60150
:1030A000AC9211966D01641775072CF08416950685
:1030B00014F4818101C080E3415051093196D60159
:1030C00011967D014017510724F0D6018C936701BA
:1030D000E2CF6417750739F4963320F4953319F469
:1030E000311101C081E3F6018083F701822F90E264
:1030F000882319F091938150FBCFF701E20FF11D66
:10310000108280E090E02996ECE00C94CF1A2830F1
:1031100008F027E03327DA01990F311D87FD916010
:1031200000966105710539F432602E5F3D9330E3FE
:103130002A95E1F708959F3F30F0803871056105C9
:1031400009F03C5F3C5F3D93913008F08068911D31
:10315000DF93CF931F930F93FF92EF92192F987FD6
:103160009695E92F96959695E90FFF27EE52FF4F1A
:1031700099273327EE24FF24A701E701059008943F
:10318000079428F4360FE71EF81E491F511D660FDD
:10319000771F881F991F0694A1F70590079428F4BC
:1031A000E70EF81E491F561FC11D770F881F991F74
:1031B000661F0694A1F70590079428F4F80E491F9E
:1031C000561FC71FD11D880F991F661F771F0694B2
:1031D000A1F70590079420F4490F561FC71FD81F69
:1031E000990F661F771F881F0694A9F78491109581
:1031F000177041F0D695C79557954795F794E79482
:103200001A95C1F7E8E7F0E06894159015913591AB
:103210006591959105907FE27395E118F10A430B52
:10322000560BC90BD009C0F7E10CF11E431F561F06
:10323000C91FD01D7EF4703311F48A95E6CFE8944F
:10324000015030F0080F0AF40027021708F4202F6D
:103250002395022F7A3328F079E37D932A95E9F7B5
:1032600010C07D932A9589F60694979567953795B2
:1032700017951794E118F10A430B560BC90BD009A7
:1032800098F023957E9173957A3308F070E37C93E0
:103290002013B8F77E9170617D9330F0839571E3D0
:1032A0007D9370E32A95E1F71124EF90FF900F9141
:1032B0001F91CF91DF91992787FD909508950E94E6
:1032C000A11908F481E00895E89409C097FB3EF441
:1032D00090958095709561957F4F8F4F9F4F992363
:1032E000A9F0F92F96E9BB279395F69587957795E1
:1032F0006795B795F111F8CFFAF4BB0F11F460FFA1
:103300001BC06F5F7F4F8F4F9F4F16C0882311F0F8
:1033100096E911C0772321F09EE8872F762F05C00C
:10332000662371F096E8862F70E060E02AF09A95A7
:10333000660F771F881FDAF7880F9695879597F99C
:103340000895990F0008550FAA0BE0E8FEEF161636
:103350001706E807F907C0F012161306E407F50789
:1033600098F0621B730B840B950B39F40A2661F0FD
:10337000232B242B252B21F408950A2609F4A140A0
:10338000A6958FEF811D811D08950E94D8190C9478
:10339000491A0E943B1A38F00E94421A20F09523E5
:1033A00011F00C94321A0C94381A11240C947D1AD2
:1033B0000E945A1A70F3959FC1F3950F50E0551F64
:1033C000629FF001729FBB27F00DB11D639FAA277A
:1033D000F00DB11DAA1F649F6627B00DA11D661FC9
:1033E000829F2227B00DA11D621F739FB00DA11DEA
:1033F000621F839FA00D611D221F749F3327A00DA4
:10340000611D231F849F600D211D822F762F6A2F3F
:1034100011249F5750409AF0F1F088234AF0EE0FA4
:10342000FF1FBB1F661F771F881F91505040A9F7D1
:103430009E3F510580F00C94321A0C947D1A5F3F28
:10344000E4F3983ED4F3869577956795B795F7950D
:10345000E7959F5FC1F7FE2B880F911D9695879585
:1034600097F9089597F99F6780E870E060E0089504
:103470009FEF80EC089500240A941616170618068C
:103480000906089500240A94121613061406050668
:103490000895092E0394000C11F4882352F0BB0FF9
:1034A00040F4BF2B11F460FF04C06F5F7F4F8F4F5C
:1034B0009F4F089557FD9058440F551F59F05F3F97
:1034C00071F04795880F97FB991F61F09F3F79F046
:1034D00087950895121613061406551FF2CF4695C8
:1034E000F1DF08C0161617061806991FF1CF86954A
:1034F0007105610508940895E894BB27662777272E
:10350000CB0197F90895052E97FB1EF400940E94B5
:103510009A1A57FD07D00E94E41A07FC03D04EF414
:103520000C949A1A50954095309521953F4F4F4FE6
:103530005F4F089590958095709561957F4F8F4F5F
:103540009F4F08950E94061BA59F900DB49F900D5C
:10355000A49F800D911D112408952F923F924F92A8
:103560005F926F927F928F929F92AF92BF92CF9213
:10357000DF92EF92FF920F931F93CF93DF93CDB71C
:10358000DEB7CA1BDB0B0FB6F894DEBF0FBECDBF94
:1035900009942A88398848885F846E847D848C8465
:1035A0009B84AA84B984C884DF80EE80FD800C816E
:1035B0001B81AA81B981CE0FD11D0FB6F894DEBF51
:1035C0000FBECDBFED010895A1E21A2EAA1BBB1BB1
:1035D000FD010DC0AA1FBB1FEE1FFF1FA217B307DF
:1035E000E407F50720F0A21BB30BE40BF50B661FF5
:1035F000771F881F991F1A9469F7609570958095B9
:1036000090959B01AC01BD01CF010895A29FB0012F
:10361000B39FC001A39F700D811D1124911DB29F06
:10362000700D811D1124911D08955058BB27AA27A4
:103630000E942D1B0C94491A0E943B1A38F00E94DC
:10364000421A20F039F49F3F19F426F40C94381AEA
:103650000EF4E095E7FB0C94321AE92F0E945A1AF7
:1036600058F3BA17620773078407950720F079F4B7
:10367000A6F50C947C1A0EF4E0950B2EBA2FA02D13
:103680000B01B90190010C01CA01A0011124FF270F
:10369000591B99F0593F50F4503E68F11A16F0400A
:1036A000A22F232F342F4427585FF3CF4695379509
:1036B0002795A795F0405395C9F77EF41F16BA0BCE
:1036C000620B730B840BBAF09150A1F0FF0FBB1F7C
:1036D000661F771F881FC2F70EC0BA0F621F731FC5
:1036E000841F48F4879577956795B795F7959E3F22
:1036F00008F0B0CF9395880F08F09927EE0F9795B3
:10370000879508950E94961B0C94491A0E94421AAC
:1037100058F00E943B1A40F029F45F3F29F00C94C6
:10372000321A51110C947D1A0C94381A0E945A1AAC
:1037300068F39923B1F3552391F3951B550BBB27E0
:10374000AA2762177307840738F09F5F5F4F220F25
:10375000331F441FAA1FA9F335D00E2E3AF0E0E81C
:1037600032D091505040E695001CCAF72BD0FE2F66
:1037700029D0660F771F881FBB1F261737074807FA
:10378000AB07B0E809F0BB0B802DBF01FF279358B2
:103790005F4F3AF09E3F510578F00C94321A0C942A
:1037A0007D1A5F3FE4F3983ED4F38695779567954D
:1037B000B795F7959F5FC9F7880F911D96958795E7
:1037C00097F90895E1E0660F771F881FBB1F621706
:1037D00073078407BA0720F0621B730B840BBA0BC4
:1037E000EE1F88F7E09508950E94FB1B6894B111C5
:1037F0000C947D1A08950E94621A88F09F5798F0E1
:10380000B92F9927B751B0F0E1F0660F771F881FE5
:10381000991F1AF0BA95C9F714C0B13091F00E94FF
:103820007C1AB1E008950C947C1A672F782F8827B2
:10383000B85F39F0B93FCCF3869577956795B39526
:10384000D9F73EF490958095709561957F4F8F4F95
:103850009F4F08950E94A11908F48FEF089519F45D
:1038600016F40C94381A0C947A1C0E94621AB8F35D
:103870009923C9F3B6F39F57550B87FF0E94881C05
:103880000024A0E640EA900180585695979528F4C8
:10389000805C660F771F881F20F0261737074807C0
:1038A00030F4621B730B840B202931294A2BA69517
:1038B00017940794202531254A2758F7660F771F5C
:1038C000881F20F026173707480730F4620B730B68
:1038D000840B200D311D411DA09581F7B901842F66
:1038E0009158880F9695879508950E94A119880B85
:1038F000990B08959F3F31F0915020F4879577956B
:103900006795B795880F911D9695879597F90895B6
:1039100091505040660F771F881FD2F70895EE0F21
:10392000FF1F0590F491E02D09940E94061B33239C
:1039300012F48A1B9B0B0C949F1C0E94061BB7FF62
:103940000895821B930B08950F931F93CF93DF93DA
:103950008230910510F482E090E0E091B904F0919A
:10396000BA0420E030E0A0E0B0E0309719F14081E7
:1039700051810281138148175907C8F084179507B0
:1039800069F4109731F012960C93129713961C93CA
:1039900027C00093B9041093BA0422C02115310541
:1039A00019F04217530718F49A01BD01EF01DF0126
:1039B000F801DBCF21153105F9F0281B390B243034
:1039C000310580F48A819B816115710521F0FB012D
:1039D0009383828304C09093BA048093B904FE0158
:1039E000329644C0FE01E20FF31F8193919322505F
:1039F0003109398328833AC02091B7043091B80443
:103A0000232B41F420910601309107013093B80433
:103A10002093B7042091040130910501211531054F
:103A200041F42DB73EB74091080150910901241B84
:103A3000350BE091B704F091B804E217F307A0F456
:103A40002E1B3F0B2817390778F0AC014E5F5F4FF4
:103A50002417350748F04E0F5F1F5093B80440936A
:103A6000B7048193919302C0E0E0F0E0CF01DF91D1
:103A7000CF911F910F910895CF93DF93009709F491
:103A800081C0FC01329713821282A091B904B091D7
:103A9000BA04109781F420813181820F931F209105
:103AA000B7043091B8042817390751F5F093B804DA
:103AB000E093B70467C0ED0120E030E0CE17DF07E8
:103AC00040F44A815B819E0141155105F1F0EA0104
:103AD000F5CFD383C28340815181840F951FC817CE
:103AE000D90759F488819981840F951F0296918393
:103AF00080838A819B81938382832115310529F4F8
:103B0000F093BA04E093B9043DC0E901FB83EA8372
:103B100049915991C40FD51FEC17FD0761F48081BD
:103B20009181840F951F0296E90199838883828190
:103B300093819B838A83E0E0F0E012968D919C91C3
:103B40001397009719F0FD01DC01F7CF8D919C913F
:103B500011979D012E5F3F4F820F931F2091B70455
:103B60003091B8042817390769F4309729F4109276
:103B7000BA041092B90402C013821282B093B8043E
:103B8000A093B704DF91CF910895A0E0B0E0EBECF3
:103B9000FDE10C94B11AEC01009721F4CB010E94D5
:103BA000A41CB4C0FC01E60FF71F9C012250310990
:103BB000E217F30708F4A8C0D9010D911C911197E1
:103BC00006171707B0F00530110508F49BC0C801AF
:103BD00004978617970708F495C002501109061B31
:103BE000170B019311936D937C93CF010E943C1DA1
:103BF00089C05B01A01AB10A4C01800E911EA091F0
:103C0000B904B091BA04612C712CE12CF12C1097FD
:103C100009F446C08D919C911197A815B905B1F58D
:103C20006C0142E0C40ED11CCA14DB0478F14C01D3
:103C30008A189B08640142E0C40ED11C1296BC9005
:103C400012971396AC91B5E0CB16D10440F0B28236
:103C5000A38391828082D9016D937C9309C00E5F0A
:103C60001F4F800F911FF90191838083EB2DFA2F55
:103C7000E114F10431F0D7011396FC93EE931297FF
:103C800041C0F093BA04E093B9043CC068167906C9
:103C900008F43C017D0112960D90BC91A02DB7CF88
:103CA0008091B7049091B80488169906E1F46616DD
:103CB0007706C8F48091040190910501009741F4C2
:103CC0008DB79EB74091080150910901841B950B57
:103CD000E817F907C8F4F093B804E093B704F901C2
:103CE000718360830FC0CB010E94A41C7C010097EC
:103CF00059F0A801BE010E94901ECE010E943C1DF9
:103D0000C70104C0CE0102C080E090E0CDB7DEB7AD
:103D1000EEE00C94CD1A81E090E0F8940C945321DD
:103D2000FB01DC0102C001900D9241505040D8F7D8
:103D30000895FB01DC0101900D920020E1F7089548
:103D4000AEE0B0E0E6EAFEE10C94BB1A0D891E89F4
:103D500086E08C831A8309838FEF9FE79E838D8390
:103D6000AE01475E5F4F6F89788DCE0101960E944C
:103D7000C21EEF81F885E00FF11F10822E96E4E05D
:103D80000C94D71AABE0B0E0E8ECFEE10C94AD1A6D
:103D90006C017B018A01FC0117821682838181FFFD
:103DA000CCC1CE0101963C01F6019381F70193FD50
:103DB000859193FF81917F01882309F4BAC18532EF
:103DC00039F493FD859193FF81917F01853229F428
:103DD000B60190E00E94B920E7CF912C212C312C24
:103DE000FFE1F315D8F08B3279F038F4803279F0B6
:103DF0008332A1F4232D20611DC08D3261F0803308
:103E000069F4232D216016C0832D8260382EE32DA6
:103E1000E4603E2E2AC0F32DF8601DC037FC2DC093
:103E200020ED280F2A3040F08E32B9F436FC81C1E3
:103E3000232D2064322E19C036FE06C08AE0989EDB
:103E4000200D1124922E11C0EAE02E9E200D112487
:103E5000222EF32DF0623F2E08C08C3621F4832DE4
:103E60008068382E02C0883641F4F70193FD8591B1
:103E700093FF81917F018111B3CF982F9F7D95543E
:103E8000933028F40C5F1F4F9FE399830DC0833656
:103E900031F0833771F0833509F059C021C0F80142
:103EA000808189830E5F1F4F88248394912C530156
:103EB00013C02801F2E04F0E511CF801A080B18020
:103EC00036FE03C0692D70E002C06FEF7FEFC501C1
:103ED0000E94AE204C018201F32DFF773F2E16C0C9
:103EE000280122E0420E511CF801A080B18036FE6C
:103EF00003C0692D70E002C06FEF7FEFC5010E9423
:103F0000A3204C01F32DF0683F2E820133FC1BC02F
:103F1000822D90E088169906B0F4B60180E290E018
:103F20000E94B9202A94F4CFF50137FC859137FE21
:103F300081915F01B60190E00E94B92021102A947E
:103F400021E0821A91088114910471F7E8C0843647
:103F500011F0893641F5F80137FE07C060817181A3
:103F6000828193810C5F1F4F08C060817181072E91
:103F7000000C880B990B0E5F1F4FF32DFF763F2E21
:103F800097FF09C090958095709561957F4F8F4FF1
:103F90009F4FF0683F2E2AE030E0A3010E94F520F9
:103FA000882E861845C0853731F4232D2F7EB22EFA
:103FB0002AE030E025C0932D997FB92E8F36C1F0CD
:103FC00018F4883579F0B5C0803719F0883721F0BA
:103FD000B0C0E92FE061BE2EB4FE0DC0FB2DF46031
:103FE000BF2E09C034FE0AC0292F2660B22E06C09B
:103FF00028E030E005C020E130E002C020E132E0FE
:10400000F801B7FE07C060817181828193810C5FE6
:104010001F4F06C06081718180E090E00E5F1F4FEE
:10402000A3010E94F520882E8618FB2DFF773F2ED6
:1040300036FE0DC0232D2E7FA22E891458F434FE97
:104040000BC032FC09C0832D8E7EA82E05C0B82C73
:10405000A32C03C0B82C01C0B92CA4FE0FC0FE01D4
:10406000E80DF11D8081803321F49A2D997EA92ECF
:1040700009C0A2FE06C0B394B39404C08A2D86780A
:1040800009F0B394A3FC11C0A0FE06C0B21488F4DA
:10409000280C922C9B180EC0B21460F4B60180E27A
:1040A00090E00E94B920B394F7CFB21418F42B1803
:1040B00002C0982C212CA4FE10C0B60180E390E031
:1040C0000E94B920A2FE17C0A1FC03C088E790E0BF
:1040D00002C088E590E0B6010CC08A2D867859F0C0
:1040E000A1FE02C08BE201C080E2A7FC8DE2B60116
:1040F00090E00E94B920891438F4B60180E390E082
:104100000E94B9209A94F7CF8A94F301E80DF11D2B
:104110008081B60190E00E94B9208110F5CF222065
:1041200009F442CEB60180E290E00E94B9202A94C0
:10413000F6CFF6018681978102C08FEF9FEF2B9615
:10414000E2E10C94C91AFC01059061507040011025
:10415000D8F7809590958E0F9F1F0895FC016150B0
:10416000704001900110D8F7809590958E0F9F1F99
:1041700008950F931F93CF93DF93FB01238121FDBC
:1041800003C08FEF9FEF2CC022FF16C046815781DE
:10419000248135814217530744F4A081B1819D01E8
:1041A0002F5F3F4F318320838C93268137812F5F90
:1041B0003F4F3783268314C08B01EC01FB01008441
:1041C000F185E02D0995892BE1F6D80116968D91A0
:1041D0009C911797019617969C938E931697CE01F4
:1041E000DF91CF911F910F910895FA01AA272830EE
:1041F00051F1203181F1E8946F936E7F6E5F7F4FB4
:104200008F4F9F4FAF4FB1E03ED0B4E03CD0670F2F
:10421000781F891F9A1FA11D680F791F8A1F911D82
:10422000A11D6A0F711D811D911DA11D20D009F4D2
:1042300068943F912AE0269F11243019305D319314
:10424000DEF6CF010895462F4770405D4193B3E0FD
:104250000FD0C9F7F6CF462F4F70405D4A3318F0A4
:10426000495D31FD4052419302D0A9F7EACFB4E055
:10427000A6959795879577956795BA95C9F700970D
:104280006105710508959B01AC010A2E06945795AE
:10429000479537952795BA95C9F7620F731F841F05
:1042A000951FA01D089510E0C7EED0E004C0FE01E8
:1042B0000E948F1C2196C83ED107C9F7F894FFCF02
:1042C000B00401000000BB048000000040001400A6
:1042D000540000000000A50112013C01F2016D0133
:1042E0004B015F0100000000F902CC022903A0028B
:1042F000C402B002A102000000005D071201290300
:104300002803000000002C031201290328034F4E4C
:10431000004F46460057656C636F6D65210045424E
:10432000696B654F53205631004279204161726FAD
:104330006E204265636B6572002D2D2D2D2D2D2D68
:104340002D2D2D2D2D2D2D2D2D2D2D2D2D00537958
:104350007374656D204F4B2E005072657373206A25
:104360006F79737469636B20746F00636F6E746927
:104370006E7565004D50483A004F444F3A0054481E
:10438000543A00496C6C6567616C4D6F64653A0026
:10439000202020202020202020202020202020201D
:1043A00020202020004D50483A20003E00526964F1
:1043B000652054696D65202D2D2D2D2D2D2D2D2D34
:1043C0002D0054696D652053696E636520496E69DF
:1043D00074002530326C643A253032643A2530322C
:1043E00064000D0A0054656D70202D2D2D2D2D2D8E
:1043F0002D2D2D2D2D2D2D2D2D2D00543A20004805
:10440000493A20004572726F722072656164696E6C
:1044100067004D454E55202D2D2D2D2D2D2D2D2D4B
:104420002D2D2D2D2D004261636B00526964652096
:1044300054696D650054656D70657261747572655F
:104440000042455441204343204D6F646500496E4E
:10445000666F006E616E00696E66006F76660000C2
:00000001FF
